:100000000C946D000C948A000C948A000C948A0065
:100010000C948A000C948A000C948A000C948A0038
:100020000C948A000C948A000C948A000C948A0028
:100030000C948A000C948A000C94D5000C948A00CD
:100040000C948A000C948A000C948A000C948A0008
:100050000C948A000C948A000C948A000C948A00F8
:100060000C948A000C948A008202970297029702ED
:1000700097029702970297028202970297029702CD
:1000800097029702970297028202970297029702BD
:1000900097029702970297028202970297029702AD
:1000A0009702970297029702870297029702970298
:1000B00097029702970297028F0297029702970280
:1000C0009702970297029702870297029702970278
:1000D00097029702970297028F0211241FBECFEF5B
:1000E000D8E0DEBFCDBF11E0A0E0B1E0E0E9F5E08F
:1000F00002C005900D92A831B107D9F721E0A8E11F
:10010000B1E001C01D92A832B207E1F70E94490296
:100110000C94C6020C940000E0E8F0E080818F733C
:10012000808385B18D7F85B90895109280001092EB
:1001300081001092850010928400009719F40E94AB
:100140008C000895A0E0B0E0880F991FAA1FBB1F84
:10015000880F991FAA1FBB1F9C01AD01220F331FDF
:10016000441F551F220F331F441F551F60E074E2C8
:1001700084EF90E00E949E02DA01C9010197A10973
:10018000B109009721E0A207B10520F08FEF9FEFA2
:10019000A0E0B0E0909389008093880080E4809391
:1001A00080008AE08093810008951F920F920FB61D
:1001B0000F9211248F939F93AF93BF9380911E0151
:1001C00090911F01A0912001B09121010196A11DE4
:1001D000B11D80931E0190931F01A0932001B09345
:1001E0002101BF91AF919F918F910F900FBE0F9002
:1001F0001F90189582E084BD93E095BD99EF97BD5F
:1002000080936E0008952FB7F89460911E0170914D
:100210001F0180912001909121012FBF089584B189
:10022000826084B90E948C00089581E080931D0152
:1002300010921C010E940301609318017093190130
:1002400080931A0190931B01E0911C01F0E0EE0FE6
:10025000FF1FEE0FFF1FE050FF4F808191810E9432
:100260009500089510921D010E948C0008958F92B0
:100270009F92AF92BF92CF92DF92EF92FF920F9335
:100280001F9380911D01882309F440C00E9403013F
:10029000009118011091190120911A0130911B0150
:1002A0006B017C01C01AD10AE20AF30A20911C01F9
:1002B000E22FF0E0EE0FFF1FEE0FFF1FE050FF4FA9
:1002C000428153814A01A12CB12CC814D904EA04FB
:1002D000FB04E0F02F5F20931C01263010F01092F9
:1002E0001C01609318017093190180931A01909377
:1002F0001B01E0911C01F0E0EE0FFF1FEE0FFF1F4E
:10030000E050FF4F808191810E9495001F910F91D5
:10031000FF90EF90DF90CF90BF90AF909F908F9025
:1003200008958BB1877F8BB98BB18F7E8BB98BB1E1
:100330008F7D8BB98BB18F7B8BB908958AB1886023
:100340008AB98AB180618AB98AB180628AB98AB170
:1003500080648AB90E949101089581E08093270109
:10036000109226010E9403016093220170932301E1
:1003700080932401909325018BB18F7B8BB90895D5
:100380008230E9F028F4882349F0813071F03AC0D6
:10039000843049F1F0F0853069F134C010922701C2
:1003A0000E9491010E9432010895109227010E943B
:1003B00091018BB188608BB90E943201089510922F
:1003C00027010E9491018BB180618BB90E9432019B
:1003D0000895109227010E9491018BB180628BB920
:1003E0000E94320108950E9491010E94AD010E9475
:1003F00015010895109227018BB18F7B8BB90E9454
:1004000032010895109227010E9491010E94320149
:100410000895CF92DF92EF92FF920F931F938091F6
:100420002701882379F10E94030100912201109194
:10043000230120912401309125016B017C01C01A18
:10044000D10AE20AF30A970186010A3F1105210544
:100450003105C0F03BB120E423272BB96093220182
:1004600070932301809324019093250180912601AC
:100470008F5F80932601863028F0109227018BB180
:100480008F7B8BB91F910F91FF90EF90DF90CF90F2
:100490000895CF93DF931F92CDB7DEB70E949E01E0
:1004A0000E940F010E94FA0087E50E94660278947C
:1004B000CE0101960E946D02882319F089810E9465
:1004C000C0010E9409020E943701F2CF880F809379
:1004D000BA0084EC8093BC000895DC019091BC00CC
:1004E000992354F54091B900E42FE87F4E2F50E056
:1004F000FA01E056F109E933F105C8F4EC5CFF4F6D
:100500000C94C00284EC8093BC0080E0089580913C
:10051000BB008C9384EC8093BC0081E008958091B3
:10052000BB008C9384EC8093BC0081E0089584EC44
:100530008093BC0080E0089580E00895A1E21A2E27
:10054000AA1BBB1BFD010DC0AA1FBB1FEE1FFF1F77
:10055000A217B307E407F50720F0A21BB30BE40BC7
:10056000F50B661F771F881F991F1A9469F760950E
:100570007095809590959B01AC01BD01CF010895C8
:10058000EE0FFF1F0590F491E02D0994F894FFCF32
:100590000B02B4009302B4001003B4009302B40041
:0805A000DC03040100007800F7
:00000001FF
