:10000000F0C000000EC100000CC100000AC10000D9
:1000100008C1000006C1000004C1000002C10000C8
:1000200000C10000FEC00000FCC00000FAC00000DB
:10003000F8C00000F6C00000F4C00000F2C00000EC
:10004000F0C00000EEC00000ECC00000EAC00000FC
:10005000E8C00000E6C00000E4C00000E2C000000C
:10006000E0C00000DEC00000DCC00000DAC000001C
:10007000D8C00000D6C00000D4C00000D2C000002C
:10008000D0C00000CEC00000CCC00000CAC000003C
:10009000C8C00000C6C00000C4C00000C2C000004C
:1000A000C0C00000BEC00000BCC00000BAC000005C
:1000B000B8C00000B6C00000B4C00000B2C000006C
:1000C000B0C00000AEC00000ACC00000AAC000007C
:1000D000A8C00000A6C00000A4C00000A2C000008C
:1000E000A0C0000034013C013C013C0136013C0150
:1000F00038013A013C013C013C013C013C013C011E
:100100003C013C013C013C013C013C013C013C0107
:100110003C013C013C013C013C013C013C013C01F7
:100120003C013C013C013C013C013C013C013C01E7
:100130003C013C013C013C013C013C013C013C01D7
:100140003C013C013C013C013C013C013C013C01C7
:100150003C013C013C013C013C013C013C013C01B7
:100160003C013C012C013C013C013C012E013C01C5
:10017000300132013C013C013C013C013C013C01AD
:100180003C013C013C013C013C013C013C013C0187
:100190003C013C013C013C013C013C013C013C0177
:1001A0003C013C0124013C013C013C0126013C0195
:1001B00028012A013C013C013C013C013C013C017D
:1001C0003C013C011E013C013C013C013E013C0163
:1001D0002001220177047C0483048A0496049B0492
:1001E000A70411241FBECFEFD1E2DEBFCDBF00E0D8
:1001F0000CBF13E0A0E0B2E0EEE6F3E100E00BBFDD
:1002000002C007900D92AA34B107D9F723E0AAE4FF
:10021000B3E001C01D92A936B207E1F72CD50C94CA
:10022000B509EECE90E0FC01E757F109E837F1059A
:1002300018F58827EE58FF4F8F4F7DC58AE2089545
:1002400084E3089581E3089580E3089588E30895A1
:1002500085E3089582E3089583E2089589E308958C
:1002600086E3089583E3089584E4089583E408957C
:1002700082E4089581E4089580E0089587E3089575
:100280008FE090E02FEE12C020930801EFE9FFE02D
:100290003197F1F700C00000809106018F708F3018
:1002A00039F430E0220F331F21609F5F943060F3F8
:1002B000207F820F089580EF809307018FE0809365
:1002C000080108958FE080930801809106018F70E6
:1002D0008F3021F410924A0380E0089580914A0300
:1002E000811114C0EFE5FAEE3197F1F700C000007C
:1002F0009FE090930801909106019F709F3039F024
:1003000081E080934A03BCDF8DCF089580E008959B
:1003100085B1806285B9000085B18F7D85B908956A
:10032000CF93C82F662331F0E2E0F1E08081806452
:10033000808305C0E2E0F1E080818F7B808385B11E
:100340008F7E85B98DB180628DB983B3806283BBA6
:100350008DB188608DB9E1E0F1E0808188608083B3
:10036000E2E0F1E08081877F80838EB1877F8EB964
:1003700084B38F7D84BB8EB18F7D8EB9CC231CF46A
:10038000808188608083C6FF03C08EB188608EB98B
:10039000C5FF03C084B3806284BBC4FF03C08EB1B9
:1003A00080628EB9B5DFE2E0F1E08081877F8083F3
:1003B0008EB1877F8EB984B38F7D84BB8EB18F7DE4
:1003C0008EB9C3FF03C0808188608083C2FF03C0F1
:1003D0008EB188608EB9C1FF03C084B3806284BBD4
:1003E000C0FF03C08EB180628EB992DF8EB1806291
:1003F0008EB984B3806284BB8EB188608EB9E2E02E
:10040000F1E0808188608083CF910895882331F066
:10041000E2E0F1E080818064808305C0E2E0F1E009
:1004200080818F7B808385B1806185B98DB18F7D1F
:100430008DB983B38F7D83BB8DB1877F8DB9E1E0AB
:10044000F1E08081877F808385B1806285B900007B
:10045000659902C080E001C080E19599806263994E
:1004600080649091000193FD806895B19F7D95B95E
:10047000000095B1906295B90000659981609599E9
:100480008260639984609091000193FD886095B1CA
:100490009F7D95B9089580E0B9DF8823E4F300C01B
:1004A00000C080E0B3CF0895CF93C82FF4DF60E0A1
:1004B0008C2F36DFCF910895611103C08058F4CF9F
:1004C00008958054F1CF089581E0EECF0895CF9341
:1004D000C82FE1DFCA3041F4803410F480E401C059
:1004E00080E08058E1DF03C061E08C2F19DFCF91FD
:1004F0000895CF93DF93FC0102C0E9DFFE01EF0115
:10050000219680818111F9CFDF91CF910895CF930A
:10051000C82FE1E0F1E080818064808384B1806154
:1005200084B984B1806284B98DB180628DB983B39E
:10053000806283BB8DB188608DB980818860808343
:100540008FE99FE00197F1F700C0000084B380625B
:1005500084BB8EB180628EB9DBDE81EE94E00197C0
:10056000F1F700C00000D4DE95E19A95F1F70000A4
:10057000CFDE85E18A95F1F700008EB18F7D8EB9CF
:10058000C7DE95E19A95F1F7000088E28DDF88E0FB
:100590008BDF9ADF86E088DF8C2F86DFCF9108958E
:1005A000FC011286138614860895CF93FC01C4853E
:1005B000CA3028F5438550E0DC01A40FB51F6C93C9
:1005C0004F5F5F4F9A01ADECBCECBDD3969587951C
:1005D00096958795969587959C01220F331F880FD6
:1005E000991F880F991F880F991F820F931F9A01D7
:1005F000281B390B2387CF5FC48781E001C080E0CF
:10060000CF910895FC018485882349F18285DF011B
:10061000A80FB11D8C91DB018C93428550E04F5F98
:100620005F4F9A01ADECBCEC8ED39695879596956D
:100630008795969587959C01220F331F880F991FE8
:10064000880F991F880F991F820F931F9A01281BEB
:10065000390B228784858150848781E0089580E06A
:100660000895FC01948581E0911180E008958091C6
:100670004E03813019F480914F030895EFE4F3E0C5
:1006800090812181990F892F880F880F890F820F00
:10069000089590ED980F81E09A3008F080E0089579
:1006A000CF93DF93CDB7DEB761970FB6F894DEBF77
:1006B0000FBECDBF90E008C0E1E0F0E0EC0FFD1F01
:1006C000E90FF11D20839F5FFB01E90FF11D2081E0
:1006D000222361F0903180F309C0E1E0F0E0EC0FFB
:1006E000FD1FE90FF11D20E220839F5F9031A8F3E9
:1006F000198A682F80E0E0DECE010196FADE61966D
:100700000FB6F894DEBF0FBECDBFDF91CF91089535
:1007100060E072E080E0C4DF61E172E081E0C0CFC0
:10072000089562E272E080E0BBDF63E372E081E0A3
:10073000B7CF0895CF93DF93CDB7DEB761970FB6EC
:10074000F894DEBF0FBECDBF64E472E080E0A8DFA6
:1007500080914E0381111AC0809168031F928F937C
:1007600080915A031F928F9384E592E09F938F9319
:100770001F9281E18F93CE0101969F938F93F2D2C6
:100780000FB6F894DEBF0FBECDBF39C08130D1F4B3
:100790009091680380914F031F929F931F928F93B4
:1007A00086E692E09F938F931F9281E18F93CE0113
:1007B00001969F938F93D6D20FB6F894DEBF0FBEEB
:1007C000CDBF1DC020916803EFE4F3E091818081EB
:1007D0001F922F931F929F931F928F9388E792E00F
:1007E0009F938F931F9281E18F93CE0101969F93E8
:1007F0008F93B8D20FB6F894DEBF0FBECDBFBE0147
:100800006F5F7F4F81E04CDF61960FB6F894DEBFDB
:100810000FBECDBFDF91CF910895EF92FF920F935E
:100820001F93CF93DF93CDB7DEB7A2970FB6F8949F
:10083000DEBF0FBECDBF9F938F938BE892E09F9357
:100840008F931F9211E11F93CE0101967C019F931C
:100850008F9388D2809168031F928F938091590360
:100860001F928F9380915A031F928F9386E992E093
:100870009F938F931F921F938E010E5E1F4F1F93A6
:100880000F9370D2B70180E00BDFB80181E008DF81
:100890000FB6F894DEBF0FBECDBFA2960FB6F89488
:1008A000DEBF0FBECDBFDF91CF911F910F91FF90A3
:1008B000EF90089580935B031092550310925603B6
:1008C0001092570310925803109251031092520342
:1008D000109253031092540390E08730910508F072
:1008E0003AC0FC018827E651FF4F8F4F24C260E0D9
:1008F00087E503D21FCF089561E087E5FED18DEA39
:1009000092E08BCF089561E087E5F7D186EB92E026
:1009100084CF089562E087E5F0D161EC72E080E079
:10092000BFDE62ED72E081E0BBCE089564E087E552
:10093000E4D1EECE089563E087E5DFD163EE72E0A7
:1009400080E0AEDE64EF72E081E0AACE089566E05A
:1009500087E5D3D1E6CE0895CF93C82F9ADE8823BA
:1009600071F0E0914D03E230D0F581E08E0F80937D
:100970004D03F0E0C053E55BFC4FC08330C0CA328A
:1009800051F480915B03833019F484E093DF27C036
:1009900010924D0324C0C332E1F480914D038130A5
:1009A00031F460914B038CE593E0FFDD0FC08230A2
:1009B00069F4EBE4F3E08081880F682F660F660F1F
:1009C000680F9181690F8CE593E0EFDD10924D0384
:1009D00006C080915B03843011F485E06BDFCF911A
:1009E000089580915B03811117C069E573E08CE580
:1009F00093E008DE882381F09091590380915A0397
:100A0000981303C086E056CF0895891718F481E043
:100A100051CF089582E04ECF0895CF92DF92EF92AA
:100A2000FF920F931F93009155031091560320914D
:100A30005703309158036B017C01C00ED11EE21E9A
:100A4000F31EC0925503D0925603E0925703F092E2
:100A5000580320915B03223009F44DC028F422236F
:100A600069F0213069F09EC0253009F488C0263035
:100A700009F48FC0233009F095C077C0B2DF92C06F
:100A8000009151031091520320915303309154036C
:100A9000060F171F281F391F00935103109352038D
:100AA0002093530330935403083E1340210531052E
:100AB00008F478C01092510310925203109253031D
:100AC0001092540360915A0380915903681748F4B7
:100AD0006F5F60935A0380E090E035D48DEA92E036
:100AE0009CDE90915A0380915903981708F45AC0DC
:100AF00083E0E0DE57C00091510310915203209132
:100B0000530330915403060F171F281F391F0093FA
:100B10005103109352032093530330935403083E20
:100B200013402105310508F43DC010925103109285
:100B30005203109253031092540360915A03809110
:100B40005903861748F4615060935A0380E090E09F
:100B5000FAD386EB92E061DE90915A0380915903BB
:100B6000891700F183E0A6DE1DC088EBC8168BE074
:100B7000D806E104F104B0F085E09CDE13C080EDFE
:100B8000C81687E0D806E104F10460F080E092DE48
:100B900009C08CEDC81685E0D806E104F10410F018
:100BA00080E088DE1F910F91FF90EF90DF90CF9053
:100BB0000895CF93C82F80915A038C130CC0809155
:100BC0005B03811108C08CE593E04BDD882319F0AD
:100BD00086E070DE16C06C2F8CE593E0E6DC8111B8
:100BE00010C065E073E05CDD66E173E081E058DD34
:100BF0002FEF8FE097E2215080409040E1F700C056
:100C00000000CF910895CF93C82F43DD882371F062
:100C1000E0914E03E230C8F481E08E0F80934E03E2
:100C2000F0E0C053E15BFC4FC0830FC0CA3219F43F
:100C300010924E030AC0C33241F480914E038823C0
:100C400021F015DDB6DF10924E03CF9108953ADB07
:100C5000882381F090915B03911103C0D4DF6ACDAA
:100C60000895943031F465E087E547D085E022CEE1
:100C7000089572CE08951FDB8CE049DC25DC34D06A
:100C80008CE593E08DDC80E090E055D3843618F459
:100C900080935A0306C010925A0360E080E090E00F
:100CA00052D367E273E080E0FBDC68E373E081E04D
:100CB000F7DC2FEF87E99AE3215080409040E1F77D
:100CC00000C0000080E0F6DDC2DF62E370E080E09B
:100CD00090E0A3DE2FEF80E792E02150804090402B
:100CE000E1F700C00000F0CF1092B90088E48093D3
:100CF000B80084E08093BC00089594EA9093BC000F
:100D00009091BC009923E4F7880F8093BB0084E89E
:100D10008093BC008091BC008823E4F76093BB0003
:100D200084E88093BC008091BC008823E4F784E9C8
:100D30008093BC000895EE0FFF1F881F8BBF0790A4
:100D4000F691E02D1994A29FB001B39FC001A39F1B
:100D5000700D811D1124911DB29F700D811D1124F4
:100D6000911D08950F931F93CF93DF93CDB7DEB7F7
:100D70002E970FB6F894DEBF0FBECDBF0E891F8928
:100D8000888D998D26E02C831A83098397FF02C0F2
:100D900080E090E801979E838D83AE01445E5F4FB3
:100DA0006A8D7B8DCE01019619D04D815E8157FDF4
:100DB0000AC02F813885421753070CF49A01F801B5
:100DC000E20FF31F10822E960FB6F894DEBF0FBE0F
:100DD000CDBFDF91CF911F910F9108952F923F9238
:100DE0004F925F926F927F928F929F92AF92BF923B
:100DF000CF92DF92EF92FF920F931F93CF93DF93E7
:100E0000CDB7DEB72B970FB6F894DEBF0FBECDBFC0
:100E10006C017B018A01FC0117821682838181FFAC
:100E2000BFC1CE0101963C01F6019381F70193FD0C
:100E3000859193FF81917F01882309F4ADC18532AB
:100E400039F493FD859193FF81917F01853221F4DF
:100E5000B60190E0D6D1E8CF912C212C312CFFE1C6
:100E6000F315D8F08B3279F038F4803279F0833290
:100E7000A1F4232D20611DC08D3261F0803369F40F
:100E8000232D216016C0832D8260382EE32DE4606F
:100E90003E2E2AC0F32DF8601DC037FC2DC020ED7A
:100EA000280F2A3040F08E32B9F436FC75C1232D5C
:100EB0002064322E19C036FE06C08AE0989E200DAE
:100EC0001124922E11C0EAE02E9E200D1124222E14
:100ED000F32DF0623F2E08C08C3621F4832D8068FC
:100EE000382E02C0883641F4F70193FD859193FFB7
:100EF00081917F018111B3CF982F9F7D95549330BD
:100F000028F40C5F1F4F9FE399830DC0833631F0A7
:100F1000833771F0833509F055C020C0F801808116
:100F200089830E5F1F4F88248394912C530112C034
:100F30002801F2E04F0E511CF801A080B18036FE6E
:100F400003C0692D70E002C06FEF7FEFC5014ED185
:100F50004C018201F32DFF773F2E15C0280122E0BE
:100F6000420E511CF801A080B18036FE03C0692DED
:100F700070E002C06FEF7FEFC5012DD14C01F32D62
:100F8000F0683F2E820133FC19C0822D90E0881654
:100F90009906A0F4B60180E290E033D12A94F5CF0F
:100FA000F50137FC859137FE81915F01B60190E034
:100FB00028D121102A9421E0821A910881149104E9
:100FC00079F7E1C0843611F0893639F5F80137FE3A
:100FD00007C060817181828193810C5F1F4F08C0BF
:100FE00060817181072E000C880B990B0E5F1F4FDB
:100FF000F32DFF763F2E97FF09C090958095709551
:1010000061957F4F8F4F9F4FF0683F2E2AE030E071
:10101000A30133D1882E861844C0853731F4232D9F
:101020002F7EB22E2AE030E025C0932D997FB92E75
:101030008F36C1F018F4883579F0AEC0803719F0DA
:10104000883721F0A9C0E92FE061BE2EB4FE0DC0A3
:10105000FB2DF460BF2E09C034FE0AC0292F266084
:10106000B22E06C028E030E005C020E130E002C02A
:1010700020E132E0F801B7FE07C060817181828112
:1010800093810C5F1F4F06C06081718180E090E00A
:101090000E5F1F4FA301F1D0882E8618FB2DFF771E
:1010A0003F2E36FE0DC0232D2E7FA22E891458F41C
:1010B00034FE0BC032FC09C0832D8E7EA82E05C0E5
:1010C000B82CA32C03C0B82C01C0B92CA4FE0FC0AF
:1010D000FE01E80DF11D8081803321F49A2D997E67
:1010E000A92E09C0A2FE06C0B394B39404C08A2DF1
:1010F000867809F0B394A3FC10C0A0FE06C0B21419
:1011000080F4280C922C9B180DC0B21458F4B60130
:1011100080E290E076D0B394F8CFB21418F42B1894
:1011200002C0982C212CA4FE0FC0B60180E390E0F1
:1011300068D0A2FE16C0A1FC03C088E790E002C000
:1011400088E590E0B6010CC08A2D867851F0A1FEAA
:1011500002C08BE201C080E2A7FC8DE2B60190E004
:1011600050D0891430F4B60180E390E04AD09A94CC
:10117000F8CF8A94F301E80DF11D8081B60190E06B
:1011800040D08110F6CF222009F44ECEB60180E285
:1011900090E037D02A94F7CFF6018681978102C07C
:1011A0008FEF9FEF2B960FB6F894DEBF0FBECDBF2B
:1011B000DF91CF911F910F91FF90EF90DF90CF9033
:1011C000BF90AF909F908F907F906F905F904F9067
:1011D0003F902F900895FC010590615070400110E0
:1011E000D8F7809590958E0F9F1F0895FC01615050
:1011F000704001900110D8F7809590958E0F9F1F39
:1012000008950F931F93CF93DF93FB01238121FD5B
:1012100003C08FEF9FEF2CC022FF16C0468157817D
:10122000248135814217530744F4A081B1819D0187
:101230002F5F3F4F318320838C93268137812F5F2F
:101240003F4F3783268314C08B01EC01FB010084E0
:10125000F185E02D1995892BE1F6D80116968D912F
:101260009C911797019617969C938E931697CE0193
:10127000DF91CF911F910F910895FA01AA2728308D
:1012800051F1203181F1E8946F936E7F6E5F7F4F53
:101290008F4F9F4FAF4FB1E03ED0B4E03CD0670FCF
:1012A000781F891F9A1FA11D680F791F8A1F911D22
:1012B000A11D6A0F711D811D911DA11D20D009F472
:1012C00068943F912AE0269F11243019305D3193B4
:1012D000DEF6CF010895462F4770405D4193B3E09D
:1012E0000FD0C9F7F6CF462F4F70405D4A3318F044
:1012F000495D31FD4052419302D0A9F7EACFB4E0F5
:10130000A6959795879577956795BA95C9F70097AC
:101310006105710508959B01AC010A2E069457954D
:10132000479537952795BA95C9F7620F731F841FA4
:10133000951FA01D0895F999FECF92BD81BDF89A21
:10134000992780B50895262FF999FECF92BD81BDCA
:10135000F89A019700B4021639F01FBA20BD0FB6F3
:0E136000F894FA9AF99A0FBE0895F894FFCF08
:10136E004F62737461636C65206465746563742089
:10137E0000507265737320616E79206B6579202041
:10138E00200053616D6520666C6F6F7220202020E7
:10139E0020200043686F6F736520616E6F746865FF
:1013AE007220200043686F6F736520666C6F6F72DA
:1013BE003A23200043757272656E743A2530327589
:1013CE0020513A257500496E7075743A25755F2067
:1013DE00513A257520202000496E7075743A257596
:1013EE00257520513A2575202020002573202020B8
:1013FE002020202020004375723A2530327520546B
:10140E0061723A2530327520513A257500476F6961
:10141E006E6720757000476F696E6720646F776E18
:10142E0000446F6F72206F70656E20202020202088
:10143E0020002A3A206F62737461636C652020204D
:10144E00202000446F6F7220636C6F73696E67208B
:10145E0020202000506C65617365207761697420CF
:10146E00202020200051756575652066756C6C20F6
:10147E0020202020200054727920616761696E203F
:10148E006C617465722000456C657661746F7220B4
:10149E007265616479202000466C6F6F72207265F0
:0A14AE0073746F7265642020000063
:00000001FF
